:100000000C949B0C0C94B80C0C94B80C0C94B80C7D
:100010000C94B80C0C94B80C0C94B80C0C94B80C50
:100020000C94B80C0C94B80C0C9462160C94DD1B58
:100030000C940A290C94B80C0C94B80C0C94B80CC1
:100040000C94B80C0C94B80C0C94B80C0C94B80C20
:100050000C94B80C0C943B170C94B80C0C94B80C82
:100060000C94B80C0C94B80C0C94B80C0C94B80C00
:100070000C94B80C0C94B80C0C94B80C0C94B80CF0
:100080000C94B80C0C94B80C0C94B80C0C94B80CE0
:100090000C94B80C0C94B80C0C94B80C0C94B80CD0
:1000A0000C94B80C0C94B80C0C94B80C0501098095
:1000B000A101850319012AB700150126B700950192
:1000C00075108100C0050C0901A101850419012AE0
:1000D000A002150126A002950175108100C005013E
:1000E0000906A1018506050719E029E71500250184
:1000F0009508750181020507190029EF15002501F2
:1001000095F075018102050819012905950575010C
:100110009102950175039101C00660FF0961A1017B
:100120000962150026FF00952075088102096315F4
:100130000026FF00952075089102C005010906A15F
:1001400001050719E029E7150025019508750181CA
:10015000029501750881010507190029FF15002680
:10016000FF00950675088100050819012905950508
:1001700075019102950175039101C0000000000016
:10018000000000000000000000000000000000006F
:100190000000000000000000000000000000007EE1
:1001A0000F00D4FFFFFFC700000078000000000030
:1001B0000000002A2B2800000000000000000000C2
:1001C00000000000000029000000002C1E34202147
:1001D0002224342627252E362D3738271E1F20218E
:1001E00022232425263333362E37381F04050607ED
:1001F00008090A0B0C0D0E0F101112131415161707
:1002000018191A1B1C1D2F3130232D350405060724
:1002100008090A0B0C0D0E0F1011121314151617E6
:1002200018191A1B1C1D2F3130354C00000000001E
:1002300000E0CE9CF8FCFE80E02000000000000002
:1002400000000000000000000000000000000000AE
:10025000000000008080C0C0E0E0F0F0F8FCFEFC90
:10026000F8F0E0E0C0C080808000000000000000E6
:10027000000000000000000000000000000000007E
:10028000000000000000000000000000000000006E
:10029000000000000000000000000000000000005E
:1002A0000000000000000000000000010101010248
:1002B0000238F7F7F7F7F7F73100081010101020A1
:1002C000202020404040408080F0F8DC363EEEFCAC
:1002D000E09CFEFFFFFFFFFFCFCFFFFFBF7F7FBF91
:1002E000FFFF7FFFFFFFFFFFFFFFFFFFFEFEFCFCA6
:1002F000FCFCFEFEFFFFFF3F0000000080800000CE
:1003000000000000000000000000000000000000ED
:1003100000000000000000000000000000000000DD
:1003200000000000000000000000000000000000CD
:10033000000003070F0F0F01000000000000000085
:1003400080C0E030382C44C4C4687859899191D376
:10035000F3A3232727C7C74F4F8F8F9F9F1F1F3F91
:100360003E3E3F7F7F7F7FFCFCFFFFFFFFFFFFFFE5
:10037000FFFFFFFFFFFFFEF8E000003F1F0783C005
:10038000E0E0C000000000000000000000000000ED
:10039000000000000000000000000000000000005D
:1003A00000000000000000000000000000000080CD
:1003B000C0603010180808081810306040C08687E8
:1003C00085C449693E0E131113123C2C262745683B
:1003D00078589D9793E362343C2C26C7C569391938
:1003E0001D36A2E26224183C7E7F7F7FBF3F1F1F25
:1003F0008FE76327274747CFCF0F08101011112130
:100400002323214040404080808080000000000085
:1004100000000000000000000000000000000000DC
:1004200000000000000000000000000000000000CC
:1004300000000000000000000000000000000000BC
:1004400000000000000000000000000000000000AC
:10045000000000000000000000000000000000009C
:10046000000000000000000000000000000000008C
:10047000000000000000000000E0CE9CF8FCFE80C0
:10048000E02000000000000000000000000000006C
:100490000000000000000000000000008080C0C0DC
:1004A000E0E0F0F0F8FCFEFCF8F0E0E0C0C0808096
:1004B00080000000000000000000000000000000BC
:1004C000000000000000000000000000000000002C
:1004D000000000000000000000000000000000001C
:1004E000000000000000000000000000000000000C
:1004F00000000001010101020238F7F7F7F7F7F7F2
:1005000031000810101010A0A0202040464F5F9F1F
:100510009C9080C0E0F0F8F8FCFCFEFFFFFFFFFFBE
:10052000CFCFFFFFBF7F7FBFFFFF7FFFFFFFFFFF3B
:10053000FFFFFFFF7EBEBCBC7CFCFEFEFFFFFF3F5B
:1005400000000000000000000000000000000000AB
:10055000000000000000000000000000000000009B
:10056000000000000000000000000000000000008B
:100570000000000000000000000003070F0F0F0143
:10058000000000000000070F8FC7E331382C04641F
:10059000F8FEFFFFFFFFFF7FBF8F272727C7C74F4B
:1005A0004F8F8F9F9F1F1F3F3E3E3F7F7F7F7FFC70
:1005B000FCFF81FAFFE6E7FDFFFCF3FFFFFFFEF81B
:1005C000E00000000000000000000000000000004B
:1005D000000000000000000000000000000000001B
:1005E000000000000000000000000000000000000B
:1005F0000000000000000080C060301018080808EB
:100600001810306040C0868785C449693E0E1311BA
:1006100012123D2D2526446878589D9793E3623445
:100620003C2C26C7C56939191D36A2E262343C2C20
:1006300044C8C8E9B911111393E36327274747CF8B
:10064000CF0F081010101020202020404040408084
:10065000808080000000000000000000000000001A
:10066000000000000000000000000000000000008A
:10067000000000000000000000000000000000007A
:10068000000000000000000000000000000000006A
:10069000000000000000000000000000000000005A
:1006A000000000000000000000000000000000004A
:1006B000000000000000000000000000DA1281FFCE
:1006C000D9F1DB20A4A62EAF00A0C000A1C800AEC7
:1006D000D580A83FD300408D14200000000000000A
:1006E00000E0CE9CF8FCFE80E0200000000000004E
:1006F00000000000000000000000000000000000FA
:10070000000000008080C0C0E0E0F0F8FCFEFFFECA
:10071000FCF8E0E0E0E0E0C0C0C080800000000045
:1007200000000000000000000000000000000000C9
:1007300000000000000000000000000000000000B9
:1007400000000000000000000000000000000000A9
:100750000000000000000000000000010101010293
:100760000238F7F7F7F7F7F73100081010101020EC
:100770002020204040404080808080C0E0F0F8F899
:10078000FCFCFEFFFFFFFFFFCFCFFFFFBF7F7FBF60
:10079000FFFF7FFFFFFFFFFFFFFFFFFFFEFEFCFCF1
:1007A000FCFCFEFEFFFFFF3F000000000000000019
:1007B0000000000000000000000000000000000039
:1007C0000000000000000000000000000000000029
:1007D0000000000000000000000000000000000019
:1007E000000003070F0F0F010000000000000000D1
:1007F00080C0E030382C0464F8FEFFFFFFFFFF7F6D
:10080000BF8F272727C7C74F4F8F8F9F9F1F1F3F20
:100810003E3E3F7F7F7F7FFCFCFFFFFFFFFFFFFF30
:10082000FFFFFFFFFFFFFEF8E000000000000000F8
:1008300000000000000000000000000000000000B8
:1008400000000000000000000000000000000000A8
:100850000000000000000000000000000000008018
:10086000C0603010180808081810306040C0868733
:1008700085C449693E0E131112123D2D2526446888
:1008800078589D9793E362343C2C26C7C569391983
:100890001D36A2E26224183C7E7F7F7FBF3F1F1F70
:1008A0008FE76327274747CFCF0F0810101010207E
:1008B00020202040404040808080800000000000D8
:1008C0000000000000000000000000000000000028
:1008D0000000000000000000000000000000000018
:1008E0000000000000000000000000000000000008
:1008F00000000000000000000000000000000000F8
:1009000000000000000000000000000000000000E7
:1009100000000000000000000000000000000000D7
:10092000000000000000000000E0CE9CF8FCFE800B
:10093000E0200000000000000000000000000000B7
:1009400000000000000000000000000000008080A7
:10095000C0E0F0F8FCFEFFFEFCF8F0E0C0C0C08094
:100960008000000000000000000000000000000007
:100970000000000000000000000000000000000077
:100980000000000000000000000000000000000067
:100990000000000000000000000000000000000057
:1009A00000000001010101020238F7F7F7F7F7F73D
:1009B00031000810101010202020204040404080BE
:1009C000808080C0E0E0F0F0F8F8FCFCFEFFFFFF64
:1009D0009F9FFFFF7FFFFF7FFFFFFFFFFFFFFFFFE7
:1009E000FFFFFFFFFEFEFCFCFCFCFEFEFFFFFF3FE7
:1009F00000000000000000000000000000000000F7
:100A000000000000000000000000000000000000E6
:100A100000000000000000000000000000000000D6
:100A20000000000000000000000003070F0F0F018E
:100A3000000000000000000080C0E030382C04649A
:100A4000F8FEFFFFFFFFFF7FBF8F272727C7C74F96
:100A50004F8F8F9F9F1E1E3F3D3D3E7F7F7F7FF9C3
:100A6000F9FFFFFFFFFFFFFFFFFFFFFFFFFFFCF0AE
:100A7000C0000000000000000000000000000000B6
:100A80000000000000000000000000000000000066
:100A90000000000000000000000000000000000056
:100AA0000000000000000080C06030101808080836
:100AB0001810306040C0868785C449693E0E131106
:100AC00012123D2D2526446878589D9793E3623491
:100AD0003C2C26C7C56939191D36A2E26224183C90
:100AE0007E7F7F7FBF3F1F1F8FE76327274747CF4B
:100AF000CF0F0810101010202020204040404080D0
:100B00008080800000000000000000000000000065
:100B100000000000000000000000000000000000D5
:100B200000000000000000000000000000000000C5
:100B300000000000000000000000000000000000B5
:100B400000000000000000000000000000000000A5
:100B50000000000000000000000000000000000095
:100B60000000000000000000000000000000000085
:100B700000E0CE9CF8FCFE80E020000000000000B9
:100B80000000000000000000000000000000000065
:100B9000000000000000008080C0E0F0F8FCFEFCD7
:100BA000F8F0E0C0C08080808000000000000000FD
:100BB0000000000000000000000000000000000035
:100BC0000000000000000000000000000000000025
:100BD0000000000000000000000000000000000015
:100BE00000000000000000000000000101010102FF
:100BF0000238F7F7F7F7F7F7310008101010102058
:100C00002020204040404080808080C0E0E0F0F024
:100C1000F8F8FCFCFEFFFFFF9F9FFFFF7FFFFF7FB9
:100C2000FFFFFFFFFFFFFFFFFFFFFFFEFCFCF8F8E9
:100C3000F8F8FCFCFEFEFE7E000000000000000054
:100C400000000000000000000000000000000000A4
:100C50000000000000000000000000000000000094
:100C60000000000000000000000000000000000084
:100C7000000003070F0F0F0100000000000000003C
:100C800080C0E030382C0464F8FEFFFFFFFFFF7FD8
:100C9000BF8F272727C7C74F4F8F8F9F9F1E1E3F8E
:100CA0003D3D3E7F7F7F7FF9F9FFFFFFFFFFFFFFA5
:100CB000FFFFFFFFFFFFFCF0C0000000000000008E
:100CC0000000000000000000000000000000000024
:100CD0000000000000000000000000000000000014
:100CE0000000000000000000000000000000008084
:100CF000C0603010180808081810306040C086879F
:100D000085C449693E0E131112123D2D25264468F3
:100D100078589D9793E362343C2C26C7C5693919EE
:100D20001D36A2E26224183C7E7F7F7FBF3F1F1FDB
:100D30008FE76327274747CFCF0F081010101020E9
:100D40002020204040404080808080000000000043
:100D50000000000000000000000000000000000093
:100D60000000000000000000000000000000000083
:100D70000000000000000000000000000000000073
:100D80000000000000000000000000000000000063
:100D90000000000000000000000000000000000053
:100DA0000000000000000000000000000000000043
:100DB000000000000000000000E0CE9CF8FCFE8077
:100DC000E020000000000000000000000000000023
:100DD0000000000000000000000000000000008093
:100DE00080C0E0F0F8FCFEFCF8F0E0C0C08080803D
:100DF0008000000000000000000000000000000073
:100E000000000000000000000000000000000000E2
:100E100000000000000000000000000000000000D2
:100E200000000000000000000000000000000000C2
:100E300000000001010101020238F7F7F7F7F7F7A8
:100E40003100081010101020202020404040408029
:100E5000808080C0E0F0F8F8FCFCFCFEFEFFFFFFA5
:100E6000CFCFFFFFBF7F7FBFFFFF7FFFFFFFFFFFF2
:100E7000FFFFFFFEFCFCF8F8F8F8F8FCFCFCFC3C7B
:100E80001C00000000000000000000000000000046
:100E90000000000000000000000000000000000052
:100EA0000000000000000000000000000000000042
:100EB0000000000000000000000003070F0F0F01FA
:100EC000000000000000000080C0E030382C046406
:100ED000F8FEFFFFFFFFFF7FBF8F272727C7C74F02
:100EE0004F8F8F9F9F1F1F3F3E3E3F7F7F7F7FFC27
:100EF000FCFFFFFFFFFFFFFFFFFFFFFFFFFFFEF80D
:100F0000E000000000000000000000000000000001
:100F100000000000000000000000000000000000D1
:100F200000000000000000000000000000000000C1
:100F30000000000000000080C060301018080808A1
:100F40001810306040C0868785C449693E0E131171
:100F500012123D2D2526446878589D9793E36234FC
:100F60003C2C26C7C56939191D36A2E26224183CFB
:100F70007E7F7F7FBF3F1F1F8FE76327274747CFB6
:100F8000CF0F08101010102020202040404040803B
:100F900080808000000000000000000000000000D1
:100FA0000000000000000000000000000000000041
:100FB0000000000000000000000000000000000031
:100FC0000000000000000000000000000000000021
:100FD0000000000000000000000000000000000011
:100FE0000000000000000000000000000000000001
:100FF00000000000000000000000000000000000F1
:1010000000E0CE9CF8FCFE80E02000000000000024
:1010100000000000000000000000000000000000D0
:10102000000000008080C0C0E0E0F0F8FCFEFFFEA1
:10103000FCF8E0E0E0E0E0C0C0C08080000000001C
:1010400000000000000000000000000000000000A0
:101050000000000000000000000000000000000090
:101060000000000000000000000000000000000080
:10107000000000000000000000000001010101026A
:101080000238F7F7F7F7F7F73100081010101020C3
:101090002020204040404080808080C0E0F0F8F870
:1010A000FCFCFEFFFFFFFFFFCFCFFFFFBF7F7FBF37
:1010B000FFFF7FFFFFFFFFFFFFFFFFFFFEFEFCFCC8
:1010C000FEFEFEFFFFFFFF3F0F06000000000000D6
:1010D0000000000000000000000000000000000010
:1010E0000000000000000000000000000000000000
:1010F00000000000000000000000000000000000F0
:10110000000003070F0F0F010000000000000000A7
:1011100080C0E030382C0464F8FEFFFFFFFFFF7F43
:10112000BF8F272727C7C74F4F8F8F9F9F1F1F3FF7
:101130003E3E3F7F7F7F7FFCFCFFFFFFFFFFFFFF07
:10114000FFFFFFFFFFFFFEF8E000000000000000CF
:10115000000000000000000000000000000000008F
:10116000000000000000000000000000000000007F
:1011700000000000000000000000000000000080EF
:10118000C0603010180808081810306040C086870A
:1011900085C449693E0E131112123D2D252644685F
:1011A00078589D9793E362343C2C26C7C56939195A
:1011B0001D36A2E26224183C7E7F7F7FBF3F1F1F47
:1011C0008FE76327274747CFCF0F08101010102055
:1011D00020202040404040808080800000000000AF
:1011E00000000000000000000000000000000000FF
:1011F00000000000000000000000000000000000EF
:1012000000000000000000000000000000000000DE
:1012100000000000000000000000000000000000CE
:1012200000000000000000000000000000000000BE
:1012300000000000000000000000000000000000AE
:101240000000003300320031003000202020204C0C
:10125000617965723A2000FD377A585A000004E639
:10126000D6B4460200210116000000742FE5A3E069
:1012700000C4008D5D003D8889C65436C3174FE415
:10128000DFB0E5650F5EA2658981E824E6F84D864A
:101290005FB9640EAA3C82F8BB1536E631D32E2422
:1012A0001FCB2771E4558ED3CC02911A9E42F106D2
:1012B0006622150D2655A34E168E26BE48E17B2BC1
:1012C000468792EED906C804CCF25113137BF9DDA0
:1012D0000962EB389017132A2D641F23BA0027F7F1
:1012E0002878A61E82BA813A98210A5779FFC171DF
:1012F000590D81EAD0596974D42F74B82EAE008389
:10130000E5AB4F00000000932412C7ECD4A61400F4
:1013100001A901C501000048C97780B1C467FB027B
:101320000000000004595AA900AA000100010001B0
:1013300000010001000100A80001000100010000FF
:10134000AF00AE09025B00030100A0FA090400002F
:1013500001030101000921110100012240000705DC
:1013600081030800010904010002030000000921B3
:101370001101000122220007058203200001070558
:1013800003032000010904020001030000000921F9
:1013900011010001226D00070584032000011201E4
:1013A00000020000000808022220010001020301DF
:1013B0001C037600690061006C003A00660036008C
:1013C00034006300320062003300630000000C034D
:1013D0004800550059002000310000001403680047
:1013E000750079006B00610061006D0061006100B3
:1013F00000000403090407087F0807003E5B4F5BF9
:101400003E003E6B4F6B3E001C3E7C3E1C00183C79
:101410007E3C18001C577D571C001C5E7F5E1C0024
:1014200000183C180000FFE7C3E7FF00001824186D
:101430000000FFE7DBE7FF0030483A060E002629F0
:1014400079292600407F05050700407F05253F00DC
:101450005A3CE73C5A007F3E1C1C0800081C1C3EFE
:101460007F0014227F2214005F5F005F5F00060987
:101470007F017F00006689956A006060606060009F
:1014800094A2FFA2940008047E04080010207E208D
:10149000100008082A1C0800081C2A0808001E1052
:1014A000101010000C1E0C1E0C0030383E3830009E
:1014B000060E3E0E060000000000000000005F0067
:1014C0000000000700070000147F147F1400242A86
:1014D0007F2A120023130864620036495620500008
:1014E000000807030000001C224100000041221CEC
:1014F00000002A1C7F1C2A0008083E080800008003
:101500007030000008080808080000006060000053
:101510002010080402003E5149453E0000427F4031
:1015200000007249494946002141494D33001814D1
:10153000127F10002745454539003C4A4949310092
:1015400041211109070036494949360046494929D0
:101550001E000000140000000040340000000008DD
:101560001422410014141414140000412214080021
:101570000201590906003E415D594E007C121112CC
:101580007C007F49494936003E41414122007F416C
:1015900041413E007F49494941007F090909010055
:1015A0003E41415173007F0808087F0000417F41A0
:1015B00000002040413F01007F08142241007F408D
:1015C000404040007F021C027F007F0408107F0023
:1015D0003E4141413E007F09090906003E4151213B
:1015E0005E007F0919294600264949493200030156
:1015F0007F0103003F4040403F001F2040201F006C
:101600003F4038403F00631408146300030478042B
:1016100003006159494D4300007F414141000204EC
:1016200008102000004141417F0004020102040033
:101630004040404040000003070800002054547818
:1016400040007F284444380038444444280038444B
:1016500044287F0038545454180000087E090200C2
:1016600018A4A49C78007F080404780000447D40FE
:1016700000002040403D00007F1028440000004151
:101680007F4000007C04780478007C080404780023
:10169000384444443800FC18242418001824241822
:1016A000FC007C080404080048545454240004043A
:1016B0003F4424003C4040207C001C2040201C0073
:1016C0003C4030403C004428102844004C9090900E
:1016D0007C004464544C4400000836410000000083
:1016E00077000000004136080000020102040200F9
:1016F0003C2623263C00000000000000404040F053
:10170000F8F8FF38FFF8F83FF8F8FF38FFF8F8F07E
:1017100040404000000000000080C0C0C0800000C9
:10172000C0C08000000080C0C000C0C0000080C0F9
:10173000C00000000000C0C0C0C0C000C0C00000A9
:101740000000000000000000000000000000000099
:101750000000000000000000000000000000000089
:101760000000000000000000000000000000000079
:101770000000000000C0F0F8FC3E1E060100000062
:101780007F4141417F007F4141417F000080C0E0B7
:101790007E5B4F5BFEC00000C000DCD7DEDEDED724
:1017A000DC00C0000000000000000000000000009D
:1017B000000000000000000000000000494949FF4F
:1017C000FFFFFFE0DFBFBF00BFBFDFE0FFFFFFFFA6
:1017D00049494900000000001F3F6060E0BF1F0052
:1017E0007F7F071E381E077F7F007F7F0E1F3B71A4
:1017F0006000000000007F7F0C0C0C007E7E007FEC
:101800007E0303007F7E03037E7E03037F7E000F43
:101810003E703C063C703E0F00327B49493F7E00E3
:101820007F7E0303001E3F69696F260000000000F1
:101830000000000000030F1F3F3C787060000000B4
:101840007F4141417F007F4141417F00307B7F7874
:1018500030202030787F3B0003000F7F0F0F0F7F79
:101860000F00030000000000000000000000000066
:10187000000000000000000000000000010101075E
:101880000F0F7F0F7F0F0F7E0F0F7F0F7F0F0F0741
:101890000101010000000000000000000001010043
:1018A0000000000000000000000000000000000038
:1018B0000000000000000000000000000000000028
:1018C0000000000000000000000000000000000018
:1018D0000000000000000000000000000000000008
:1018E00000000000000000000000000000000000F8
:1018F00000000000000000000000000000000000E8
:1019000000000000000000000000000000000000D7
:1019100000000000000000000000000000000000C7
:1019200000000000000000000000000000000000B7
:1019300000000000000011241FBECFEFDAE0DEBF80
:10194000CDBF11E0A0E0B1E0E8EFF6E602C00590FF
:101950000D92A238B107D9F727E0A2E8B1E001C0A3
:101960001D92A13CB207E1F70E9431290C94563335
:101970000C940000CF93DF934091BF075091C007B4
:101980004F5B53409A01285B3D4F21303440C0F0FB
:1019900020E034E0241B350B6091BD037091BE0341
:1019A000FC01CA01240F351FC1E0D0E08217930764
:1019B00050F07093BE036093BD03DF91CF91089503
:1019C00028E432E0E9CF4491DC01A154BC4F5C91A2
:1019D000451781F04C93AC01A6E056954795AA9522
:1019E000E1F7DE0102C0AA0FBB1F4A95E2F7AD0185
:1019F0006A2B752B01963196D9CFE8EDF0E0808106
:101A00008E7F80831092E2001092DA001092E10043
:101A1000A0EEB0E08C9181608C9380818F77808381
:101A200019BCA7EDB0E08C918E7F8C9380818F7E66
:101A300080831092830308952091E4003091E500A3
:101A400095E6A9012091EC00822F817020FF06C04D
:101A50008091E80080FF06C080E008952091E800B2
:101A600022FD1AC08091A803882389F0853089F06F
:101A70008091EB0085FD0FC02091E4003091E500DE
:101A800042175307F9F29150E1F684E0089582E09D
:101A9000089583E0089581E00895EF92FF920F93F7
:101AA0001F93CF937C018B010E941C0DC82F8111C5
:101AB00017C08091E80085FD0BC08091E8008E770B
:101AC0008093E8000E941C0D882399F3C82F08C05A
:101AD000F70181917F018093F1000150110949F7CD
:101AE0008C2FCF911F910F91FF90EF9008958091CF
:101AF000AA0387FF13C08091E80082FF06C080918F
:101B0000E8008B778093E80004C08091A8038111DE
:101B1000F2CF08958091A8038823D9F38091E8003B
:101B200080FFF8CF8091E8008E77ECCF982F9093CC
:101B3000E900242F762F50E0891731F07091EC00E6
:101B40002091ED005091F00021FD07C09F5F97307C
:101B500071F78093E90081E008953091EB003E7FBA
:101B60003093EB003091ED003D7F3093ED003091EC
:101B7000EB0031603093EB007093EC002093ED00AC
:101B80005093F0002091EE0027FDE0CF80E0089513
:101B9000B0E0A0E0EEECFDE00C942232C8EDD0E025
:101BA00088818F7E8883E7EDF0E08081816080838B
:101BB00084E082BF81E08093830388818E7F888365
:101BC00002EE10E0F80110821092DA0081EEC82EC9
:101BD000D12CF601108288818F7788838881806874
:101BE000888388818F7D888319BC1092A803109206
:101BF000A9031092A7031092A60390EEE92EF12CF0
:101C0000F70180818B7F808388818160888342E0B7
:101C100060E080E00E94960DF60180818E7F8083D7
:101C2000F801808181608083808188608083F701F2
:101C300080818E7F8083888180618883CDB7DEB785
:101C4000E8E00C943E32FC018091B0039091B10326
:101C500086179707A0F06115710529F49091E800A7
:101C60009E779093E80090E06115710551F4911111
:101C700008C08091E80082FF34C080E00895BC0174
:101C8000F2CF8091A8038823C1F18530C1F1809102
:101C9000E80083FD30C08091E80082FDEACF8091AA
:101CA000E80080FFE1CF8091F3002091F200382F0F
:101CB0006115710519F02830310558F091E0283090
:101CC000310509F090E02091E8002E772093E8009C
:101CD000CBCF81918093F100615071092F5F3F4F0D
:101CE000E7CF8091A803882341F0853041F08091AF
:101CF000E80083FFBECF81E0089582E0089583E08D
:101D000008950895089580918503089587E797E7DA
:101D1000909301088093000888E19AE00FB6F89448
:101D2000A895809360000FBE90936000FFCF2FB7FF
:101D3000F89460917A0370917B0380917C03909179
:101D40007D032FBF089520917703309178032817E2
:101D5000390771F09093780380937703E0917503CE
:101D6000F0917603309721F00084F185E02D0995FC
:101D7000089520917303309174032817390771F087
:101D80009093740380937303E0917503F09176034D
:101D9000309721F00680F781E02D09950895E091B4
:101DA0007503F0917603309729F00190F081E02DD2
:101DB0000995089580E008952091B60336E0839F49
:101DC000C0011124629F800D911D112481549C4FEC
:101DD0009093C0078093BF07089581152CE5920763
:101DE00041F42091160130911701232B11F490E05A
:101DF00080E0089580E00895F8942198299A7894D5
:101E0000089590917E0392FF06C0282F28712830F4
:101E1000F9F4877F846093FF06C0282F287128314A
:101E2000F1F4877E846120917F0320FF06C0382F64
:101E300038713830D9F4877F816021FF06C0282FA0
:101E400028712831D1F4877E816194FD877E0895C1
:101E5000282F24712430F9F68B7F8860DCCF282F5F
:101E60002471243101F78B7E8861DDCF382F3171E9
:101E7000313019F78E7F8860E0CF282F2171213112
:101E800021F78E7E8861E1CFCF93DF93EC0182381A
:101E90009105A9F1D8F58133910509F496C048F56B
:101EA0008932910509F48AC08A9709F495C0C11551
:101EB00022E5D20708F0B6C0C11531E5D30708F016
:101EC00026C1C83ED10508F09CC0C03ED10560F5D2
:101ED000C83AD10508F087C0C53AD10508F0EFC06F
:101EE000C130D10509F12097F9F0C430D105E0F4F3
:101EF00040C08533910509F45AC0C997C1F6809155
:101F00007E03837089F0C0EED0E00EC0833E910561
:101F100099F170F4803E910501F1823E910539F608
:101F200080917E0382FD21C0CE01DF91CF91089583
:101F3000863E910561F1873E910571F1843E9105E0
:101F400009F0B5CF80917F0381FFEECF80917E03B2
:101F5000C7EED0E084FD0DC0E7CF80917E0380FD09
:101F600007C190917F0390FFDFCFC3EED0E084FFE5
:101F7000DBCFD0E0C0E0D8CF80917E0382FDFBC0F4
:101F800090917F0390FDBFCF84FFCECFF2CF8091A1
:101F90007E0383FDDDCFC8CF80917E0383FDEEC03D
:101FA00090917F0391FFF0CFC4EED0E0BDCF809140
:101FB0007E0385FFB9CFC9E2D0E0B6CF80917E0322
:101FC00085FFB2CFC5E3D0E0AFCF80917E0386FF1F
:101FD000ABCFCAE2D0E0A8CF80917E0386FFA4CF2A
:101FE000C1E3D0E0A1CFCF3BD10518F6C85AD0E06D
:101FF000CC0FDD1FCC5DDE4F0990D881C02DD4649D
:1020000093CFC11540E5D40708F064C0C11580E442
:10201000D80708F05CC0CE019A9581159F4108F45D
:1020200083CFA7CFC11536E5D30718F5C11545E510
:10203000D40708F084C0C11584E5D80708F07AC039
:102040009C2F969596959E0123703327C115D345F5
:1020500008F462C0C1E0D0E002C0CC0FDD1F2A95B9
:10206000E2F730E2939FC0011124C82BD92BDA6824
:102070005BCFC1158AE5D80778F4C11599E5D90772
:1020800008F068C0C11528E5D20708F472CFDC2F2C
:10209000CC27C06FD06A48CFCE01905681159042B0
:1020A00008F067CF8D2F8F710E94010F90E0982F5D
:1020B000882788279F719C012C2BE90149C0C55AAC
:1020C000D0E0CF5DDE4FC881D0E0D0642DCFDF708F
:1020D000D06A2ACFCE01E4E096958795EA95E1F79C
:1020E00083702C2F26952695237040E2249F900123
:1020F0001124382B8C2F8370C1E0D0E002C0CC0FAC
:10210000DD1F8A95E2F7C22BD32BDC680DCFDC2FC5
:10211000CC27C16FD06A08CFC1E0D0E002C0CC0F9D
:10212000DD1F2A95E2F720E2929FC0011124C82BFF
:10213000D92BEBCFDC2FCC27C46FD06AF5CE8C2FF8
:102140000E94010FC82FD0E0DC2FCC27CC27DF71F5
:10215000D062EACE8C2F8F700E94010F34E0D695AA
:10216000C7953A95E1F7CF709C2FEC01D069DCCE92
:10217000C9E3D0E0D9CEC2EED0E0D6CEC6EED0E0F4
:10218000D3CE80910A02882331F010920A02109275
:10219000090210920802089580959091C002982338
:1021A0009093C002089580959091BF0298239093D8
:1021B000BF0208951092E7011092E6011092E50126
:1021C0000895909118019923D1F090917E0397FF83
:1021D00016C0E82FE695E695E695EE31E0F4F0E0DE
:1021E000EC57FE4F282F277081E090E001C0880F48
:1021F0002A95EAF780959281892382830895E6E8FB
:10220000F1E09191891303C0DF0111971C9291E0D5
:10221000EC38F907B1F70895909118019923C1F0AE
:1022200090917E0397FF14C0E82FE695E695E6951A
:10223000EE31F8F4F0E0EC57FE4F877021E030E02B
:1022400001C0220F8A95EAF78281822B828308954A
:10225000A6E8B1E0EFEF90E02D91821751F0EF3F4B
:1022600019F4211101C0E92F9F5F9630A9F7EF3FC4
:1022700009F408950E2E000CFF0BEC57FE4FE6CF2D
:102280008091E4019091B301981301C008958F5F8C
:102290008770FACF903F09F446C0911119C081119F
:1022A00015C08091AB01482F417050E0440F551F7D
:1022B0009091AA019170942B8091AC01282F2170EC
:1022C00030E0220F331F220F331F922B892F0895E6
:1022D0009C5F923040F5682F677090E023E0969500
:1022E00087952A95E1F7FC01EE0FFF1FE80FF91F14
:1022F000E955FE4F50E040E090E0219130E0062E9D
:1023000002C0369527950A94E2F721703327042EF0
:1023100001C0220F0A94EAF7922B4F5F5F4F4330C0
:10232000510559F7D3CF90E0D1CF262F277091E0F8
:1023300001C0990F2A95EAF723E0769567952A95CB
:10234000E1F7FB01EE0FFF1FE60FF71FE40FF51F8C
:1023500050E040E0682F70E08191DF0111979B0110
:10236000042E02C0369527950A94E2F72170219534
:102370002827292328272C934F5F5F4F433051058F
:1023800059F70895282F862F903F41F0911107C0EB
:102390004AEA51E070E060E0222341F008959C5F3A
:1023A0009230E0F7622F70E047EA51E00E94951109
:1023B000F5CF982F92959F7011F0892F94E0282FD8
:1023C0002695269511F09E5F822F869509F09F5FD6
:1023D000892F08959C013A9521153F4150F5FC0144
:1023E000EE27F170BC0166277270AC01442754706F
:1023F0009C012227387094FF0EC080E1EF2B09F476
:1024000080E0672B09F08062452B09F08064232B64
:1024100089F08068089581E0EF2B09F480E0672B54
:1024200009F08260452B09F08460232B19F0886045
:10243000089580E00895EFEBF3E080E094E0DF01A1
:102440009C011D9221503040E1F7F093C007E093CA
:10245000BF078FEF9FEF9093BE038093BD03089556
:10246000CF93DF93C091BF07D091C0078A30C1F4EA
:102470002091B603CE018F5B9340622F70E00E94E3
:102480000432281B822F66E00E944F32C82FC150B1
:1024900018F4DF91CF91089580E20E943012F7CFB7
:1024A0008D30E9F4CF5BD3402091B603622F70E00A
:1024B000CE010E940432281B822F9E01280F311D5D
:1024C0002115344018F080E0D0E0C0E0C80FD11DE5
:1024D000C154DC4FD093C007C093BF07DACF96E05A
:1024E000FE01A7EBB3E001900D929A95E1F7803ED3
:1024F00008F458C086E0FE0111928A95E9F7C09170
:10250000BF07D091C00746E050E0BE0187EB93E0E3
:102510000E94E8329E012F5B3340892B41F1C901B3
:1025200046E0969587954A95E1F741E050E0BA017B
:1025300002C0660F771F8A95E2F7CB016091BD0359
:102540007091BE03862B972BB9016B5F7F4FE6E03E
:1025500076956795EA95E1F702C0440F551F6A9595
:10256000E2F7842B952B9093BE038093BD032A5FE3
:102570003F4F4091B603642F70E0C9010E940432BE
:10258000481B463010F4240F311D211574E0370725
:1025900010F030E020E021543C4F3093C0072093EE
:1025A000BF0777CFF6E08F9FB00111246A507C4EB1
:1025B00046E050E0CE010E94DF32A1CFCF93DF93FF
:1025C000EC01FE018491811103C0DF91CF91089548
:1025D0000E9430122196F5CFB0E0A0E0E2EFF2E1E8
:1025E0000C9422326C017B0164E670E088E70E9463
:1025F0001B31EC0197FD12C010E000E0F601E00F86
:10260000F11F849164E670E00E948931EC01892B0E
:1026100029F40F5F1F4F0E151F0581F70E9400322E
:10262000CE01CDB7DEB7E8E00C943E328091BD021A
:102630009091BE02911103C091E0892708958823EB
:1026400069F062E070E081E493E10E94EC12892B72
:1026500019F08091BD0208951092BD028091BD02D3
:10266000EBCFCF93C091BD028091BE028823D1F001
:102670000E94970E605A75418F4F9F4F6093B90229
:102680007093BA028093BB029093BC02C11108C040
:1026900062E070E08FE393E10E94EC12892B29F055
:1026A000C091BD028C2FCF91089581E08093BD022F
:1026B000F7CF8093800370938203609381038091AE
:1026C000A8038430F9F48093E9008FEF9091E8003B
:1026D000815095FD06C095ED9A95F1F700008111A6
:1026E000F5CF8091E80085FF0DC050E040E063E049
:1026F00070E080E893E00E944D0D8091E8008E77B5
:102700008093E8000895BC0184E00E945913089565
:10271000BC0183E00E9459130895CF93DF93EC012D
:10272000809118018823B1F180917E0387FF32C028
:1027300060E284E08093E9008FEF9091E80081509F
:1027400095FD06C095ED9A95F1F700008111F5CF42
:102750008091E80085FF1BC08091180170E050E077
:1027600040E0811104C050E040E068E070E0CE013C
:102770000E944D0D8091E8008E778093E80080E202
:10278000FE01A6E8B3E001900D928A95E1F7DF9192
:10279000CF91089568E081E0CDCFCF93DF93CFE86C
:1027A000D0E060E0CE010E941A332196C11584E08A
:1027B000D807B9F7DF91CF9108950F931F93CF9367
:1027C000DF93142F022F8430E8F461111BC094E0D2
:1027D000899FE0011124AF9682E090E0442311F03C
:1027E00090E080E0632F8C0F9D1F0E941A3383E0DE
:1027F00090E0112311F081E090E0602F8C0F9D1F7D
:102800000E941A33DF91CF911F910F9108951F936A
:10281000CF93DF93122F843088F4962F942B71F48A
:10282000C82FD0E0CC0FDD1F632FCE0187960E940A
:102830001A33612FCE0188960E941A33DF91CF910F
:102840001F910895CF93C82F6FEF811165E183E247
:1028500090E00E941A336FEFC11169E284E290E0C8
:102860000E941A336FEFC11162EC85E290E00E9482
:102870001A33CF910895AAE0B0E0E1E4F4E10C94BA
:102880002032C0901601D090170181E090E0909323
:1028900017018093160187E3A82E83E1B82E97E2F3
:1028A000E92E93E1F92E10E0F5012591349140E0F5
:1028B00060E0812F0E940714F7012591349141E0D7
:1028C00060E0812F0E94DD13F7013296259134914B
:1028D00040E060E0812F0E94DD1382E0A80EB11C71
:1028E0001F5F84E0E80EF11C1430F1F61A821982A1
:1028F0001C821B821E821D8218861F8288EC90E03B
:102900009A8789870FE310E04AE050E0B801CE01D2
:1029100001960E943E33065F1F4F0F381105A1F745
:10292000D0921701C09216012A96EAE00C943C322C
:1029300080E00E94221460E086E290E00E941A3358
:102940000E943B140E94CD1381E00E94221408953E
:102950009B01883070F49AE0899FB0011124615C7A
:102960007F4F4AE050E0C9010E94FC3290E080E0D5
:1029700008958FEF9FEF0895AAE0B0E0E2ECF4E154
:102980000C941E3203EC12E0F12CE12C8CEFC82EDB
:102990008FE1D82E93E2A92E90E2B92E2AE6822E5C
:1029A0002FE1922EF801D182C082B382A282958259
:1029B0008482F58AE48ABE016F5F7F4F8E2D0E946C
:1029C000A814892B29F489859A85F801938B828B29
:1029D000FFEFEF1AFF0A0A5E1F4F88E0E816F104C6
:1029E00009F72A96ECE00C943A32FF920F931F936A
:1029F000CF93DF93F42E843040F5611126C024E09C
:102A0000829F80011124015D1F4F82E090E04423EA
:102A100011F090E080E0800F911F0E940C33C82FCE
:102A2000D0E0DC2FCC2783E090E0FF2011F081E0A4
:102A300090E0800F911F0E940C339E01282BC9014A
:102A4000CDB7DEB7E5E00C94413290E080E0F8CFFE
:102A50000F931F93CF93DF938430D0F4642BC1F492
:102A6000082F10E0000F111FC80187960E940C3339
:102A7000C82FD0E0DC2FCC27C80188960E940C33E9
:102A80009E01282BC901DF91CF911F910F910895CD
:102A900090E080E0F8CF2091B7023091B802232B6C
:102AA000C1F4703F39F4603FA1F48091B502909178
:102AB000B6020895843068F4711106C0611109C02E
:102AC00040E00E94281508957D3F31F441E06623DF
:102AD00041F090E080E008957C3FD9F76111F9CF93
:102AE00040E00E94F5140895CF92DF92FF920F9379
:102AF0001F93CF93DF936C010091B50380910B027C
:102B0000082BC7E0D0E010E0FC2EC8010C2E02C05C
:102B1000959587950A94E2F780FD0CC02197A0F760
:102B2000F12C8F2DDF91CF911F910F91FF90DF90AE
:102B3000CF900895B6018C2F0E944B150E94440F30
:102B4000019761F3EECFCF93DF93EC010E947415F0
:102B5000BE010E944B150E94440FDF91CF91089552
:102B6000FC01808191810E94A31592959F709630FF
:102B700091F058F4925F9F70923058F4803F19F0B2
:102B800030F4883E30F481E008959A5FF4CF843FBA
:102B9000D1F380E00895883EB0F3813FD1F7F3CFC1
:102BA00083E290E00E940C33853189F484E290E066
:102BB0000E940C33893259F485E290E00E940C3374
:102BC00091E0823C09F090E0892F8170089580E0C7
:102BD000FCCFCF9384E090E00E940C33C82F82E2B8
:102BE00090E00E940C33982F8C2FCF91089568EEBF
:102BF0007EEF90E080E00E94383360E082E090E079
:102C00000E941A3360E083E090E00E941A33109231
:102C10000B0260E084E090E00E941A3364E082E2FC
:102C200090E00E941A3360E085E090E00E941A3341
:102C300060E086E090E00E941A336FEF87E090E05A
:102C40000E941A3340E050E0BA0188E090E00E9410
:102C50002C3360E08DE090E00E941A3340E050E0B9
:102C6000BA0188E190E00E942C3360E087E190E0B7
:102C70000E941A3340E050E0BA018CE190E00E94DB
:102C80002C3370E060E080E290E00E94383340E056
:102C900050E0BA0188E190E00E942C3380E00E946D
:102CA00022140E94981440E050E0BA018FE090E0B6
:102CB0000E942C3340E050E0BA0183E190E00E9492
:102CC0002C3308951F920F920FB60F9211242F9359
:102CD0003F934F935F936F937F938F939F93AF93A4
:102CE000BF93EF93FF938091E10082FF09C0809131
:102CF000E20082FF05C08091E1008B7F8093E100BC
:102D00008091DA0080FF24C08091D80080FF20C02D
:102D10008091DA008E7F8093DA008091D90080FF65
:102D20009DC080E189BD82E189BD09B400FEFDCF6F
:102D300081E08093A80380918303811109C00E94E0
:102D4000FD0C0E94C80D8091E20084608093E20037
:102D50008091E10080FF17C08091E20080FF13C0E6
:102D60008091E2008E7F8093E2008091E20080619A
:102D70008093E2008091D80080628093D80019BCD3
:102D800085E08093A8038091E10084FF2BC08091AF
:102D9000E20084FF27C080E189BD82E189BD89B559
:102DA000982F917080FFFBCF8091D8008F7D80930A
:102DB000D8008091E1008F7E8093E1008091E20055
:102DC0008F7E8093E2008091E20081608093E20038
:102DD0008091A903882309F447C084E08093A80365
:102DE0008091A8038091E10083FF27C08091E200D9
:102DF00083FF23C08091E100877F8093E10082E020
:102E00008093A8031092A9038091E1008E7F8093A4
:102E1000E1008091E2008E7F8093E2008091E200E9
:102E200080618093E20042E060E080E00E94960DC5
:102E30008091F00088608093F000FF91EF91BF9146
:102E4000AF919F918F917F916F915F914F913F9142
:102E50002F910F900FBE0F901F90189519BC1092D4
:102E6000A8031092830374CF8091E30087FD93E061
:102E70009093A803B5CF78941F921FB61F92112488
:102E80008F939F93AF93BF9380917A0390917B032D
:102E9000A0917C03B0917D030196A11DB11D80938B
:102EA0007A0390937B03A0937C03B0937D03BF913F
:102EB000AF919F918F911F901FBE1F9018959C01FD
:102EC0004FB7F89480917A0390917B03A0917C0393
:102ED000B0917D034FBF821B930B08952FB7F894D9
:102EE00080917A0390917B03A0917C03B0917D0344
:102EF0002FBF08950F931F93CF93DF93F894219AD8
:102F00002998789400C0C3B1D0E0D595C795D595E0
:102F1000C795C095D095C170DD270C2F0E94FC0E7F
:102F200080EA8A95F1F780910F0211E08C1301C0BD
:102F300010E08017D1F0C0930F0281E080930E0261
:102F40000E946E1790930D0280930C0280910C02E8
:102F500090910D020E945F17059758F080910F0223
:102F60008093A20210920E0204C080910E02811181
:102F7000EDCF812FDF91CF911F910F910895809117
:102F8000BF029091C002892B8093840180910A0234
:102F9000882329F10E946E172091080230910902BE
:102FA000821B930B8838934110F00E94C1108091CE
:102FB000840190910A02892B8093840180911801E9
:102FC0008823E1F180917E0387FF38C08EE1E6E837
:102FD000F1E090E08150A0F591110E94C11040E213
:102FE00050E068EE71E084E891E00E94E832892BBD
:102FF00021F180E2E4E8F1E0A8EEB1E001900D9269
:103000008A95E1F7E0917503F09176033097A9F086
:1030100080911801882359F080917E0387FF07C0B3
:10302000809184018093850186E0809384010280F1
:10303000F381E02D84E891E00995089586E0C7CFFB
:103040002191222339F29F5FC5CFEF92FF920F9318
:103050001F93CF93DF93EC018A85811134C0EB80FD
:10306000FC8087E5F81A26E12E9DC0012F9D900D6A
:103070001124DC01AD53BD4F1496ED91FC911597D1
:10308000309731F054966D917C9187539D4F0995FF
:1030900086E18E9D80018F9D100D11240D531D4FD3
:1030A000F80187810E94D310F80180850E94CC101E
:1030B0000E94BF17188219861B861E821D821092DD
:1030C000C2021092C102CDB7DEB7E6E00C944032E6
:1030D000CF93DF93EC018989811119C081E0898B3D
:1030E0008091BF029F81892B8093BF028091C00293
:1030F0009885892B8093C0020E94BF17EA81FB81CB
:10310000309729F06C897D89CE0106960995DF916B
:10311000CF91089590E080E00E94B90E90E080E0A9
:103120000E94A30E1092C0020E94BF1708958093C0
:10313000B5030E948A1808958091B503982F967060
:10314000963021F488600E9497180895877FFBCFFE
:1031500021E030E001C0220F8A95EAF720958091A6
:10316000B50382230E94971808959091E7018095F6
:1031700089238093E701282F277091F4282F082EA8
:10318000000C330B9217130659F090917F0392FFB6
:1031900007C08595859585950E94A8180E94DA102C
:1031A0000895CF93C0917F03C2FB992790F9981798
:1031B00091F080FBC2F9C0937F0360917E0384E0AD
:1031C00090E00E941A336C2F82E290E00E941A3342
:1031D00082E00E94B518CF91089521E030E001C04F
:1031E000220F8A95EAF78091B503822B0E949718E7
:1031F000089580930B020E948A1808951092BF02CE
:1032000080911801E6E8F1E0882361F080917E0367
:1032100087FF08C08EE1DF011D928A95E9F70E94C1
:103220008A18089586E0F7CFAAE2B0E0EAE1F9E172
:103230000C9427328AEA93E02091F100DC012D936F
:10324000CD01B3E0823B9B07B9F78091AB0383309C
:1032500009F472C0B8F4813009F449C0823009F42D
:10326000B3C08091E80083FF96C28091AA03909139
:10327000AB039A3008F08FC2E92FF0E0E85AFC4C1B
:103280000C94B0328A3009F48EC08B3009F471C0CE
:10329000893039F78091AA03813219F78091AE0302
:1032A0009091AF03009711F00297D9F68091E80052
:1032B000877F8093E8008091E80082FF38C090917A
:1032C000F3008091F200029731F48091F100813097
:1032D00011F0863021F48091F10080938503809174
:1032E000E8008B778093E8000E94770DBACF809139
:1032F000AA03813A09F0B5CF8091E800877F8093D7
:10330000E8008091AE039091AF03892B61F460E2F5
:1033100086E893E070E00E94230E8091E8008B77AE
:103320008093E8009ECF60E090E080E0F3CF809152
:10333000A8038111C0CF95CF8091AA03813A09F0EB
:1033400090CF8091AE039091AF03892B09F089CF84
:103350008091E800877F8093E8008091E80080FFFB
:10336000FCCF809118018093F1008091E8008E7766
:10337000B9CF8091AA03813209F073CF8091AE0357
:103380009091AF03892B09F06CCF8091E800877F83
:103390008093E8000E94770D8091AC038093180120
:1033A0000E94FE185ECF8091AA03813209F059CFA6
:1033B0008091E800877F8093E8000E94770D8091DC
:1033C000AD03809384034DCF8091AA03813A09F025
:1033D00048CF8091E800877F8093E8008091E800E3
:1033E00080FFFCCF80918403BECF803899F0823873
:1033F00009F0D1C18091AE038F70873008F0CBC146
:103400008093E9008091EB0085FB882780F910927A
:10341000E90006C08091A6039091A70391118260F4
:103420009091E800977F9093E8008093F1001092CC
:10343000F1008091E8008E77AAC1882309F498C131
:10344000823009F0A8C18091AC0381119BC18091A9
:10345000AE038F702FEF280F263008F09CC18093A9
:10346000E9002091EB0020FF8DC1933031F4809171
:10347000EB0080628093EB0085C19091EB0090613E
:103480009093EB0021E030E001C0220F8A95EAF72B
:103490002093EA001092EA008091EB008860EACF66
:1034A000811179C11091AC031F778091E30080787E
:1034B000812B8093E3008091E800877F8093E80070
:1034C0000E94770D8091E80080FFFCCF8091E3009F
:1034D00080688093E30082E0111183E08093A80369
:1034E0005AC18058823008F056C12091AC03309107
:1034F000AD032C3DE3E03E07A1F583E08A838AE239
:1035000089834FB7F894DE01139620E03EE051E244
:10351000E32FF0E050935700E49120FF03C0E295C1
:10352000EF703F5FEF708E2F90E0EA30C0F0C796EB
:103530008D939D932F5F243159F74FBF8091E80001
:10354000877F8093E8006AE270E0CE0101960E94D6
:10355000230E8091E8008B778093E8001CC1C09611
:10356000E7CF8091AE039091AF03432F55274330AF
:10357000510509F44AC078F54130510509F485C078
:103580008BE590E0E3E4F3E14230510509F003C13B
:103590002091E800277F2093E8002091B00330912C
:1035A000B1038217930708F49C0140E0211531050F
:1035B00009F070C041116EC08091E80082FDC9CF52
:1035C0008091A803882329F2853019F28091E800C0
:1035D00083FFF2CFBECF4132510509F447C04232DA
:1035E000510509F0D8C08330910508F0D4C0FC0122
:1035F000EE0FFF1FEB58FE4F0190F081E02D8E582B
:103600009E4FDC018C9190E01DC0332721303105A5
:10361000E9F02115310579F022303105F9F0233038
:10362000310509F0B8C0E0EBF3E1E4918E2F90E0B2
:10363000E0EBF3E107C0E2EFF3E1E4918E2F90E0DD
:10364000E2EFF3E1009709F4A6C0A2CFECEDF3E1BD
:10365000E4918E2F90E0ECEDF3E1F4CFEEECF3E1AA
:10366000E4918E2F90E0EEECF3E1ECCF8330910506
:1036700008F091C0880F991FFC01E558FE4F01909A
:10368000F081E02D89E090E083CF82E190E0EEE9E7
:10369000F3E17ECF8091A803882309F45ACF8530C7
:1036A00009F457CF8091E80083FD53CF8091E80063
:1036B00082FD82CF8091E80080FF78CF9091F30067
:1036C0008091F2002115310519F08830910550F0F4
:1036D00041E0089709F040E08091E8008E77809300
:1036E000E80064CF44914093F100319621503109B4
:1036F0000196E8CF803809F04EC08091E800877FBE
:103700008093E8008091A9038093F10092CE81110B
:1037100042C01091AC031230F0F58091E800877F31
:103720008093E8001093A9030E94770D112311F0F4
:1037300084E005C08091E30087FDFACF81E08093AB
:10374000A80342E061EC81E00E94960D42E261EC48
:1037500084E00E94960D42E261EC82E00E94960DA8
:1037600042E260EC83E00E94960D8091A80313C0B2
:103770008091AC03813079F481E0933009F080E0EE
:103780008093A7031092E9008091E800877F8093DF
:10379000E8000E94770D8091E80083FF0AC08091C5
:1037A000E800877F8093E8008091EB00806280933F
:1037B000EB00AA96E3E00C9443321F920F920FB6EF
:1037C0000F9211242F933F934F935F936F937F93A7
:1037D0008F939F93AF93BF93CF93DF93EF93FF9319
:1037E000D091E900DF708091EC00C82FC17080FD9E
:1037F000C0E81092E9008091F000877F8093F0008C
:1038000078940E9414191092E9008091F000886069
:103810008093F000CD2BCF70C093E900FF91EF9122
:10382000DF91CF91BF91AF919F918F917F916F91D8
:103830005F914F913F912F910F900FBE0F901F906E
:1038400018950E94FE182FEF84E39CE021508040E1
:103850009040E1F700C0000088E19AE00FB6F894CC
:10386000A895809360000FBE90936000FFCF8823DF
:1038700021F00E94CC100E94BF170895882339F0D0
:103880009091C002982B9093C0020E94BF17089598
:10389000882321F00E94D3100E94BF170895882327
:1038A00039F09091BF02982B9093BF020E94BF17EE
:1038B0000895882309F44DC0823879F40E94CF0E10
:1038C00081FF47C089E30E940C110E94BF1789E362
:1038D0000E94E1100E94BF170895833859F40E9496
:1038E000CF0E80FF36C083E50E940C110E94BF17E7
:1038F00083E5EECF843859F40E94CF0E82FF29C0B1
:1039000087E40E940C110E94BF1787E4E1CF9CEF6F
:10391000980F913AE8F290E2980F983050F487703F
:1039200091E001C0990F8A95EAF7892F0E94D31080
:10393000D1CF9BE5980F933028F490E080E00E946F
:10394000B90E0895885A873120F490E080E00E94F3
:10395000A30E0895CF93C82F8823C9F08238C9F4E5
:103960000E94CF0E81FD13C089E30E940C110E94BA
:10397000BF172FEF81EE94E0215080409040E1F797
:1039800000C0000089E30E94E1100E94BF17CF91A0
:1039900008958338A1F40E94CF0E80FDF8CF83E50F
:1039A0000E940C110E94BF172FEF81EE94E021506E
:1039B00080409040E1F700C0000083E5E4CF843808
:1039C000A1F40E94CF0E82FDE2CF87E40E940C1189
:1039D0000E94BF172FEF81EE94E02150804090406D
:1039E000E1F700C0000087E4CECF8CEF8C0F813A66
:1039F00088F580911801882301F180917E0387FF6B
:103A00001CC0EC2FE695E695E695F0E0EC57FE4FEE
:103A1000828190E04C2F477021E030E002C0220FFD
:103A2000331F4A95E2F782239323892B79F08C2F59
:103A30000E94E1100E94BF1709C0E6E8F1E0819101
:103A4000C817A9F321E0EC38F207C9F78C2F0E94C0
:103A50000C119BCF80E28C0F883068F4C77021E096
:103A600030E001C0220FCA95EAF78091BF02822B95
:103A70008093BF028ACFEBE5EC0FE33040F4F0E037
:103A8000EF5DFE4F808190E00E94B90E80CFC85A52
:103A9000C73108F07CCFEC2FF0E0EE0FFF1FEC5D9C
:103AA000FE4F808191810E94A30E71CF1F93CF930F
:103AB000DF93182FD0E0C0E0893311F4C0E5D0E0E7
:103AC000812F0E94AA1C209739F4812F0E94591C33
:103AD000DF91CF911F9108958FE99FE00197F1F752
:103AE00000C000002197EFCF0F931F93CF93DF9378
:103AF000C62FD42F022FFC0182818823A9F0609366
:103B0000B4030E946E179093B3038093B203C770FF
:103B100081E001C0880FCA95EAF70E944F1CDF912F
:103B2000CF911F910F9108958091B403681332C013
:103B30008091B2039091B3030E945F17883C910576
:103B400048F510E21D0FCD17B9F080E28C0F8830D8
:103B500040F4C77081E001C0880FCA95EAF70E945F
:103B6000481C183048F481E09D2F977001C0880FE1
:103B70009A95EAF70E944F1C802F0E94561D18301C
:103B800070F6D77081E001C0880FDA95EAF70E94DD
:103B9000481CC5CFC77081E001C0880FCA95EAF7FD
:103BA000F6CFB0E0A0E0E7EDFDE10C942032EC01AF
:103BB0008AE0A82E2881222309F48FC02130C9F57C
:103BC00099818A81913021F422960E94561D05C068
:103BD000923029F422960E94AA1C2196EBCF9330B2
:103BE00021F422960E94591CF8CF943011F02196AE
:103BF000F4CF229630E020E0AE014F5F5F4F80535C
:103C0000990B8A30910550F02150310930F38FE93A
:103C10009FE00197F1F700C00000F6CFA29EB0012F
:103C2000A39E700D11249C01260F371F8981EA0184
:103C3000E3CFE22FF0E0E555FE4FB490822F86955A
:103C40008695869590E0FC01E556FE4FE49027703E
:103C5000F12C022E02C0F594E7940A94E2F731E0C9
:103C6000E322FF24FC01E557FE4FC490D12C022E25
:103C700002C0D594C7940A94E2F731E0C322DD2450
:103C8000FC01E558FE4F049110E002C01595079520
:103C90002A95E2F701701127E114F10419F081EE81
:103CA0000E94AA1CC114D10419F086EE0E94AA1C1D
:103CB0008B2D0E94561DC114D10419F086EE0E946E
:103CC000591CE114F10419F081EE0E94591C0115F0
:103CD000110509F482CF8CE278CFCDB7DEB7EAE0E8
:103CE0000C943C3290917F0392FF10C098E0899F22
:103CF00090011124622B6093E7010E94ED180E944D
:103D00006E179093E6018093E50108950E94ED18E7
:103D10000895A7E1B0E0EFE8FEE10C9427324B8B69
:103D20005C8B6D8B7E8B8F8B61111092C0021A8A17
:103D3000198A85E0FE017396DE011D9601900D92B1
:103D40008A95E1F780917F0382FF1CC00E946E1765
:103D50002091E5013091E601821B930B8838934155
:103D600020F08091E70182FF79C00E946E172091B8
:103D7000080230910902821B930B8838934110F09E
:103D80000E94C11086E0FE013D96DE01179601906B
:103D90000D928A95E1F7CE0107960E94A927882304
:103DA00059F016E08091E4019091B301891343C06A
:103DB0006796E3E00C94433286E0FE013796DE011D
:103DC000119601900D928A95E1F78A859B85892B42
:103DD00041F38F81988589238F3F19F32091B30197
:103DE00030E0C9010196877099274091E401481796
:103DF000190671F40E94FE181092B3011092E401AA
:103E000086E0EDEAF1E0DF011D928A95E9F7C9CF7E
:103E100096E0929FD001939FB00D1124AC54BE4FF9
:103E2000FE01319601900D929A95E1F78093B301CE
:103E30000E944011B6CF819FC00111248C549E4F27
:103E40000E94A927882309F4B3CF8091E40190E070
:103E50000196877099278093E401A4CF82E00E94A5
:103E6000B51883CFA5E0B0E0E8E3FFE10C9426327B
:103E70008C019093B6028093B502011580E2180779
:103E8000C0F4802F0E94591CC8010E94EA119801B9
:103E9000205E31092830310518F00115110531F483
:103EA0000E94481C2596E4E00C9442320E94371C84
:103EB000F9CF80EF89838A831B820E946E1781600D
:103EC000782F9D838C8349815A816B818D810E94DB
:103ED000891EE8CF0F931F93CF93DF938C01EB01E3
:103EE0006BEA72E08C2F0E94A814892B71F4DD27F5
:103EF000CD55DD4F8881F801108218828330F1F0B2
:103F000048F4813059F0823081F0DF91CF911F91D8
:103F10000F9108958430B9F08530B9F78091AB02E4
:103F20009091AC02009789F306C08091AD02909108
:103F3000AE02009799F30E94321FE7CF8091AF0243
:103F40009091B002F6CF8091B1029091B2020097A9
:103F500091F72091AB023091AC028091AD0290912B
:103F6000AE0221153105F1F2009729F7C901E3CF1F
:103F7000A5E0B0E0EEEBFFE10C9426328C019093CB
:103F8000B6028093B502011580E21807C0F4C8019B
:103F90000E94EA119801205E31092830310518F09D
:103FA0000115110549F40E944F1C802F0E94AA1C84
:103FB0002596E4E00C9442320E943E1CF6CF80EF3E
:103FC00089838A8381E08B830E946E178160782FBA
:103FD0009D838C8349815A816B818D810E94891ECA
:103FE000E7CFCF93DF93EC010E94B81FCE010E9470
:103FF000321FDF91CF9108950F931F93CF93DF93DB
:104000008C01862F6BEA72E00E94A814892BB1F410
:10401000C091AB02D091AC02209781F0F801808171
:10402000833051F4CE010E94F11FCE010E94F11F96
:10403000CE010E94F11F02C08430D0F7DF91CF91F2
:104040001F910F9108950F931F93CF93DF938C01CE
:10405000EB016BEA72E08C2F0E94A814892B09F007
:1040600061C0FE01FF27D8018C91ED55FD4F8130D5
:10407000D9F419969C911997992311F080830CC05B
:104080001A969C919923D1F382E080838091AD02AE
:104090009091AE020097D9F48091AB029091AC025E
:1040A000009709F43FC013C08230D1F519968C9166
:1040B000199781112AC01A968C9181110BC083E047
:1040C00080838091AF029091B002009701F10E942D
:1040D000B81F28C084E080838091B1029091B20221
:1040E0000097A9F78091AB029091AC020097F9F08C
:1040F0000E94F11F8091AD029091AE02009739F7B6
:104100008091AB029091AC02E2CF85E080838091F8
:10411000AB029091AC02009729F00E94F11FF0CF02
:1041200086E08083DF91CF911F910F910895809158
:10413000AD029091AE02B4CFA5E0B0E0E2EAF0E2C9
:104140000C941E327C01DC0113968D919C91149786
:10415000892B39F08C9111969C9189238F3F09F01E
:104160002DC62596ECE00C943A320E947415182F57
:10417000682F89819A810E94C21169817A81812F79
:104180000E944B158C01F7018281811111C0D7016A
:1041900012968C9181117CC000313FE5130709F420
:1041A0003DC101314FE5140709F031C582E037C147
:1041B000C80190568115B0E29B0748F0905E8115CA
:1041C000E0E19E0720F0915C81159F4158F5C80100
:1041D00099279C01245031092432310518F08B971E
:1041E0000E9780F4E0911902F0E0EE0FFF1FE25EFF
:1041F000FD4F808191818F3F2FE7920719F0019643
:104200009183808380910C0190910D01019609F4B6
:10421000BECF83ECC82E82E0D82EB12CA12C9924DD
:1042200093942EC090E080E00F3F110509F088F6CE
:10423000C801CFCFD60116968C9116978823D1F05E
:1042400019968D919C910817190739F48091C10234
:104250009091C2020817190769F0F6019786148732
:104260000387C6010E946818C60106960E94251899
:104270001092C002FFEFAF1ABF0A26E1C20ED11C96
:1042800080910C0190910D018A159B059CF67FCFC2
:10429000980122513F452031310508F0AEC48FEF1F
:1042A00093E00E940C338111A6C06EEED62ED00E84
:1042B0000FE810E0D11036C019821A821B821C82CE
:1042C00099249A9468014FEFC41AD40AC8010E9435
:1042D0000C3389831A82882309F48DC0813009F058
:1042E0007FC0580152E0A50EB11CC6010E940C33DC
:1042F000C82E8A83882309F47EC0C5010E940C332E
:10430000D82E8FEF8C0D8330D8F4580183E0A80E9F
:10431000B11CDB82DD2021F0CE0101960E94D11D6F
:104320008501D0CF011534E0130709F464C0C8013A
:104330000E940C33811101C0DA940F5F1F4FBACF76
:104340008BEF8C0D833030F5C8010396DB825C0166
:10435000DD2031F35801A4E0AA0EB11C0E940C33F9
:104360008C838823E9F28B819C818130BFEF9B078E
:1043700010F0982F8827E6E0CE1631F0F7E0CF1640
:1043800031F00E94F11FCCCF0E94B81FC9CF0E940C
:10439000321FC6CF24E0C212C3CF580134E0A30EAF
:1043A000B11CC80103960E940C33DD2021F1882343
:1043B00011F18150990B989E9001999E300D112416
:1043C0004D2D4150550BCA01820F931F019708F4E0
:1043D000A7CFAFE9BFE01197F1F700C00000F6CF1B
:1043E000CE0101960E94D11D56019ACF81E00E9414
:1043F000ED180E949C188091E701877009F4B1CEF6
:10440000D70112968C91882309F4ABCE80917F035B
:1044100082FFA7CE82E00E94B518A3CE81E00E9461
:10442000A818E7CF82E0E3CF823009F029C4809159
:10443000AF029091B002892B09F422C426E12C9D91
:10444000C0012D9D900D11248D539D4FDC01509680
:104450001C920E94681814C4882309F45FC4F901EF
:104460008189882309F45AC4C50187539D4F0E944E
:10447000251854C4033FFCE51F0739F188F4083DB3
:104480003CE51307F1F0093D4CE5140751F1073DF8
:104490005CE5150709F042C426E241EE61EE0DC06D
:1044A000053F8CE51807C9F0A0F027E245EE66EE5F
:1044B000063FACE51A0709F031C4C7010E94741D1C
:1044C0009ACF27E245EE65EEF8CF26E241EE60EEA8
:1044D000F4CF27E245EE64EEF0CF26E241EE62EE45
:1044E000ECCF28E241E0EFCF01363DE5130709F4B8
:1044F0002BC4053A4DE5140709F426C40631ACE592
:104500001A0709F0B3C48091BF028A7A91E009F4D6
:1045100090E09093A5018111F7C089E20E940C11EF
:104520000E94BF1768CF80917E03806207304CE500
:10453000140709F49AC080917E03806108305CE51D
:10454000150708F492C080917E0380648EC00D3000
:104550008CE5180709F49EC0A0F480917E038E7F3D
:104560000B30ACE51A0709F480C080917E038C60A3
:104570000C30BCE51B0708F478C080917E038D7F6A
:1045800074C080917E038F7E0F30ECE51E0709F426
:104590006CC080917E03877F0031FCE51F0708F423
:1045A00064C080917E038F7D60C00D3F2CE51207B3
:1045B00009F478C040F505314CE5140709F484C0CE
:1045C00080F403318CE5180709F47AC008F472C04E
:1045D0000E94FE1890917E03892F97FB87F98058DF
:1045E00044C00B3FACE51A0709F44AC008F056C0B6
:1045F00080917F0381600A3FECE51E0709F0CEC37E
:1046000080937F03CBC30130FDE51F0709F468C029
:10461000C0F480917F038C7F0F3F3CE5130781F34B
:1046200080917F03836001154DE5140748F3809165
:104630007F03982F909591708E7F892B90FB81F945
:10464000DFCF01365DE5150709F450C0053A8DE569
:10465000180709F452C002309DE5190709F09EC3FE
:1046600060E03FC080917E03826080937E0396C3AA
:1046700080917E038460F9CF80917E038860F5CFBE
:1046800080917F038260BCCF0E94FE1880917E03E0
:104690008068EBCF80917E038B7FE7CF80917F0393
:1046A0008E7FAECF80917F038D7FAACF80917E03D6
:1046B0008F7BDBCF0E94FE1880917E038F77D5CF52
:1046C00080917E03837FD1CF80917E0382FB9927E7
:1046D00090F921E0922790FB82F990FB83F9C5CFF6
:1046E00061E08EE090E00E941A3358C390917E03FF
:1046F000892F8F7E94FF8061B8CF90917E03892FA0
:104700008E7F90FF8160B1CF85E308CF85E373C3CF
:104710000E94FE18BFEFE4E3FCE0B150E040F0403F
:10472000E1F700C000000E94860E80917F0382FBAB
:10473000882780F991E089270E94D118F7018281AA
:1047400000811181882309F448C0C8010E947415B2
:10475000D82E682FC8010E94C211B8018D2D0E9469
:104760004B150E94440F8C01882ED7011296CC90D5
:1047700012971596BC90B2944FE0B4228091E70155
:104780008770C1F0AC2CCC20B1F0812F807F8034B9
:1047900021F080E2800F883068F080917F0382FFF3
:1047A00009C082E00E94B5188091E7018770AA24B1
:1047B000A3948111A12C912E92943FE09322BBE00F
:1047C000B91508F471C0E92DF0E0EE59FC4C0C94D9
:1047D000B03281E0B1CF80E0AFCFC8010E944A1172
:1047E000D82EBBCFE12FEF70DE2E107F19F0D294C0
:1047F00020EFD222CC20B9F0DD2069F080E2800FDA
:10480000883010F0811009C08091BF02D82AD09260
:10481000BF020E94BF17802F45C08091C002D82AD6
:10482000D092C002F6CF802F0E94591CDD20E1F10A
:10483000005E8D2D083010F0811003C00E94D3104F
:1048400002C00E94CC100E94BF172EC0F12FFF7033
:10485000DF2E107F103219F0D29490EFD9228820E9
:1048600089F021E0821609F491C0CC2009F49AC0A5
:10487000BB2009F467C0F701858180FFCCCF8F7022
:10488000858360C080917F0382FD35C0CC2061F1BB
:10489000DD2039F08091BF02D82AD092BF020E9459
:1048A000BF1780E00E94AA1CA92DA850BB0B14972B
:1048B00010F40E94CF0EAA2009F453CC8091E70196
:1048C00080FD4FCCF70112828595859585950E94D4
:1048D000ED18C7010E949C208091E7018595859580
:1048E00085950E94A8183DCC80E00E94591CDD20CF
:1048F000D9F28D2DA3CFCC2049F1B11004C0809105
:104900000A028D2920C031E0B31210C082FFCCCF43
:1049100080910A02D82AD81639F20E946E17909315
:10492000090280930802D0920A02BECF45E0B41279
:10493000E6CF0E94C1109091A6018D2D892B89137D
:104940008093A6018D2D0E944F1CAECFB11003C0E5
:104950000E94C11012C051E0B51213C08091BF0275
:104960008D2109F4A1CF0E94C1109091A6018D2D37
:104970008095892389138093A6018D2D0E94481C60
:1049800093CF85E0B81609F48FCFE2CFCC2029F081
:1049900095E09B1508F488CFD5CFA4E0AB1508F4BB
:1049A00083CFEBCFBB2049F3F9E38F1209C02FEF80
:1049B00037EE43E0215030404040E1F700C00000B6
:1049C000802F0E94591C70CF812F86958695837009
:1049D00061F0813009F068CFC8019370C11002C046
:1049E00090E080E00E94A30E5FCFC8019370C110D9
:1049F00002C090E080E00E94B90E56CF812F8370F4
:104A000089F5C11051CF402F429546954770440F0C
:104A1000440F802F8F70042E01C0880F0A94EAF78C
:104A2000202F207104FF07C02FE030E001C0220FCB
:104A30004A95EAF72095169516951370123069F08D
:104A400050F430910B02113029F0822B83230E9405
:104A5000F9182ACF832B822BFACF282B80910B02B7
:104A60008227F5CF8695CC2011F0812F8170882385
:104A700009F41ACF402F429546954770440F440FD2
:104A8000802F8F70042E01C0880F0A94EAF7202F20
:104A9000207104FF07C02FE030E001C0220F4A95CB
:104AA000EAF72095169516951370123069F050F4B8
:104AB0003091B503113029F0822B83230E9497187F
:104AC000F3CE832B822BFACF282B8091B50382273C
:104AD000F5CF1F70CC2029F0812F0E94ED18802F78
:104AE00032CF802F0E94481C812F0E94A818DCCE54
:104AF000802F52EF8516B1F1581570F090EF89169E
:104B0000D1F0A1EF8A1691F0CC2009F466C0B11063
:104B100082CE812F8F712AC0B3EF8B1651F1E4EF53
:104B20008E12F2CF80917F0382FD2FC0812F8F7173
:104B3000CC20D9F21BC0CC2081F0F4E0FB1508F4A6
:104B4000B3CE1F7181E090E0012E01C0880F0A945E
:104B5000EAF79091B5038927B1CF25E02B1508F42A
:104B6000A3CEEFCF812F8F71C110BFCF0E94ED1860
:104B70009BCE80E0CC2009F4A1CF1F7181E0012EF3
:104B800001C0880F0A94EAF799CFCC20C9F0809130
:104B9000E7018770843041F40E94DA10812F8F7111
:104BA0000E94A818A12C80CE34E03B15D8F31F71C9
:104BB000812F0E94ED1863E0812F0E94721EF2CFB8
:104BC00044E04B1530F40E94DA1064E0812F8F71BD
:104BD000F4CF81E00E94B518E5CFBB2059F08933AE
:104BE00009F0EECE5FEF87EE93E0515080409040A9
:104BF000E1F7E4CE812F8F7178CF0031FFE51F07F9
:104C000009F4F4CB01312FE5120709F40BCC68014C
:104C1000E7E5DE1A8111F2C00115F7E51F0780F103
:104C2000011528E5120760F56BEA72E08C2D0E94F1
:104C3000A814892B29F586E18C9DF0018D9DF00D3E
:104C40001124ED53FD4F8681813009F0EDCB809129
:104C5000AB029091AC02892B99F08091AD029091BA
:104C6000AE02892B69F08091AF029091B002209141
:104C7000B1023091B202822B932B892B09F4DECB47
:104C8000BFEFCB16D10411F008F0F4CB80910C01EA
:104C900090910D018C159D0524F4D0920D01C092C8
:104CA0000C01F701828196E19C9D50019D9DB00C05
:104CB000112495012D533D4F6901D90150968C93D4
:104CC0005097928116968C911697992309F4C4CB2C
:104CD0001A961C930E9319978F5F16968C930E94C9
:104CE0006E17F6019687858780910A0287838091E7
:104CF000C0029091BF02892B80870190F081E02D46
:104D0000309741F0D60154966D917C91C50187533F
:104D10009D4F09951093C2020093C102F701828151
:104D2000882309F45EC01092B4030330FDE51F0729
:104D300008F0DACB0A3F2CE5120730F4C8018250A4
:104D40009C45449708F0DACB0E94E91590937F03C5
:104D500080937E0301315CE5150709F4A7CC08F0C8
:104D600024CC09309CE5190709F48ECC08F0EFCB70
:104D70000530BCE51B0709F47FCC08F0D4CB033029
:104D8000FCE51F0709F46ECC08F072CC80917E031D
:104D9000816002303CE5130709F467CC60917E0323
:104DA00010917F0384E090E00E941A33612F82E229
:104DB00090E00E941A330E94FE181DCB85E0F70197
:104DC000DE01119601900D928A95E1F7D7011296B6
:104DD0002C9189819A812111C8C90E944A11182FEA
:104DE000CCC90631BCE51B0709F0A8CC8091A50110
:104DF00081118CCC89E20E94E11092CB0F3B11050E
:104E000008F03ECF0E94311362E082E00E94DC0E87
:104E10008091A40190E00196817099278093A4016C
:104E200021E030E0281B390B48E452E0249FC00108
:104E3000259F900D349F900D1124855D9D4F0E94FC
:104E4000BA0C0E94970E609355027093560280939D
:104E50005702909358020E94970E609359027093E4
:104E60005A0280935B0290935C020ACF0A35EDE50B
:104E70001E0709F4AECC68F401152CE5120709F4FD
:104E800047CC0E3D1C4509F059CC0E94F7150E94F5
:104E9000211C0C354DE5140709F447CC08F49BCCD4
:104EA000073A1D45A1F34ACC1F93CF93DF9380911E
:104EB000B201807F09F049C08091AF01882309F4D5
:104EC00044C08091E401D091B3016091AD01709133
:104ED000AE01A091B001B091B101C62FC72316E079
:104EE000D81799F190E0109711F0CF3F19F401967F
:104EF0008770F6CF189F9001199F300D1124F9018A
:104F0000EC54FE4F41814713F2CF40814613EFCF5F
:104F100042814111ECCF438154814A1B5B0B483CD9
:104F2000510528F78091B2018F7080618093B201A2
:104F3000F901E754FE4F80818F70806180838DEA94
:104F400091E00E949C200E944011DF91CF911F911F
:104F50000895A1E1B0E0EFEAF7E20C9420328C0171
:104F600085E0F801DE011D9601900D928A95E1F72A
:104F7000F801E2808DEAA82E81E0B82E6091B001A0
:104F80007091B1016115710509F426C19091AD01CF
:104F90004091AE01892F84238F3F09F41DC12081E8
:104FA0003181C380D480F090AF01F601E61BF70B8E
:104FB000FF2009F4DCC08091B201582F507FE83CFB
:104FC000F10508F09FC051116BC0FE2C431314C0B3
:104FD000921312C0E11010C08F7080618093B201F3
:104FE000C5010E949C208091B201F80185838F2D1C
:104FF0006196EAE00C943C32C114D10429F0822F6E
:1050000083238F3F09F003C180E0F82FF170DF2E7A
:1050100080FF3CC08091E4014091B30156E08413CD
:1050200015C02D873E878D859E850E94A315292F4B
:1050300022952F702230F0F0243018F59F70F1F097
:10504000F8019581907FD1F4D12C1EC090E0589F3B
:10505000F001599FF00D1124EC54FE4F618136137D
:1050600006C06081261303C06281E6120FC001965C
:105070008770D5CF9F7011F0882331F3805E883020
:1050800018F3C8010E949C20FD2CB1CFEE2009F43A
:10509000AECF8091B20181608093B201F12CA7CF95
:1050A000431306C0921304C0F801EE2009F479C03E
:1050B000C8010E94B015882309F1EE20F9F0809113
:1050C000B201803270F02091AD013091AE0138878D
:1050D0002F831986DB86CA868C87CE0107960E94AD
:1050E0009C2086E0F801ADEAB1E001900D928A952E
:1050F000E1F70E945427FF24F39479CFC8010E945E
:105100009C20F9CF51110AC08DEA91E00E949C20A9
:1051100086E0F50111928A95E9F7C0CF43130FC0DD
:1051200092130DC0E1100BC0F8018583C8010E94E5
:105130009C2086E0F50111928A95E9F758CFC801C5
:105140000E94B0158823D1F2EE20C1F28091B20105
:10515000803238F22091AD013091AE013A8329833B
:105160001B82DD82CC828E83CE010196B8CFE83CD3
:10517000F105F8F6FE2CEE2009F243131FC092133E
:105180001DC08091B20180FD10C0982F907F69F002
:10519000F8018583903F31F0982F907F905F8F705A
:1051A000892B8583C8010E949C2086E0F801ADEA26
:1051B000B1E001900D928A95E1F719CFC8010E94E4
:1051C000B01581118ECF8091B20181608093B201C0
:1051D000C8010E949C200BCFEE2009F48FCFC8019C
:1051E0000E94B015F82E882309F488CF86E0F801D4
:1051F000ADEAB1E001900D928A95E1F78091AD01A1
:105200009091AE010E94A3150E945427F0CE81E038
:105210008E25FBCE1F921FB61F9211248F939F9352
:10522000AF93BF9380917903811113C080917A036A
:1052300090917B03A0917C03B0917D034196A11DC9
:10524000B11D80937A0390937B03A0937C03B0936A
:105250007D03BF91AF919F918F911F901FBE1F90B3
:105260001895CDB7DEB7CA54D1090FB6F894DEBF92
:105270000FBECDBF85B7806885BF85B7806885BF05
:1052800084B7877F84BF0FB6F894A895809160009B
:10529000886180936000109260000FBE80E890E00B
:1052A0000FB6F89480936100909361000FBE8AEF6F
:1052B0009EE090938301809382010E94BC146E9AB9
:1052C00076980E94FD0C0E94C80D8091E2008460D7
:1052D0008093E20078948091A8038823A1F0109134
:1052E000E9001F709091EC00892F817090FD80E89B
:1052F000182B1092E9008091E80083FD0E94141998
:105300001F701093E90082E084BD93E095BD9AEF91
:1053100097BD80936E000E94D015811102C00E943B
:1053200098140E94FC0EF89422982A9A789410926D
:10533000A20210920F0290E080E00E941433883E97
:105340009E4F21F40E94D015811102C00E94F715D2
:1053500082E090E00E940C33809310020E94E915D5
:1053600090937F0380937E030E947A172FEF86E746
:1053700091E0215080409040E1F700C000000E9481
:105380007A178091A20280FF08C06FEF7FEF90E054
:1053900080E00E9438330E94860E83E090E00E94F5
:1053A0000C330E94F91810929D0280E88093B60396
:1053B0000E9415316DE070E08EEC96E00E94EC12D8
:1053C000892B59F580919D0263E070E081FD7AC0E0
:1053D0008BEC96E00E94EC12892BF9F46DE070E002
:1053E0008BEB96E00E94EC12892BB9F40E94970E89
:1053F000605A75418F4F9F4F6093B9027093BA0204
:105400008093BB029093BC020E941B1281E08093A8
:10541000BE028093BD0210929E0281E080935202F0
:1054200057985F9A24982C9AAFE8B1E01197F1F75A
:1054300000C000003091520243E552E0FA018E2F85
:10544000841B831708F441C080E091E090937603B9
:105450008093750340E4E42E8091A80300E112E1FB
:10546000853009F473C00E947A17D82E81110E94EA
:10547000970E8091A20290911102292F282798134C
:105480006FC08FEF25968FAF259726968FAF269703
:1054900027961FAE27970E946E178160782F299656
:1054A0009FAF8EAF299725964FAD259726965FAD76
:1054B000269727966FAD279729968FAD29970E943B
:1054C000891E72C088EC96E085CF89B190E0880F84
:1054D000892F881F990B1C9904C020E0822B81938F
:1054E000AECF22E0FBCF8091A803843029F10E9447
:1054F000161310927903E8E1F0E00FB6F894A8953E
:10550000E09360000FBEE092600083B7817F84600B
:1055100083BF83B7816083BF7894889583B78E7F7C
:1055200083BF0FB6F894A89580916000886180933E
:105530006000109260000FBE8091A703882331F0B5
:105540000E947A178091A202811150C68091A8030F
:10555000853009F4C8CF0E94FE180E94CF0E83CF79
:1055600020FF8FCF1FAE21961FAE2197817022960C
:105570008FAF22970E946E178160782F24969FAF7D
:105580008EAF24974FAD21965FAD219722966FADD8
:10559000229724968FAD24970E94891E8091110234
:1055A00091E089278093110280910C0190910D0167
:1055B00010E006E1019609F0A2C140901E02509051
:1055C0001F02052C000C6608770880910E0190E000
:1055D000EEE1F2E021E030E03296821793070CF022
:1055E00098C180911A0290911B02A0911C02B09167
:1055F0001D026FB7F89480907A0390907B03A0907F
:105600007C03B0907D036FBF881A990AAA0ABB0A6F
:1056100010910E0129EC82169104A104B10414F139
:105620008091190290E0019669E170E00E945B327E
:1056300080931902880F991FFC01E25EFD4F1182D1
:105640001082812F183108F087E18F5F80930E015F
:105650000E94970E60931A0270931B0280931C02A3
:1056600090931D0282E048165104610471040CF409
:105670005DC1A0E6BAEEA30192010E94BD322B01EA
:105680003C0198EC199F90011124032E000C440B4F
:10569000550B280D391D4A1D5B1DA5E0B0E00E9489
:1056A000BD329B01AC01C301B2010E946F322901DE
:1056B0003A01A1EF4A165104610471042CF080EF05
:1056C000482E512C612C712C80911502909116025C
:1056D000A0911702B09118022FB7F89480907A0326
:1056E00090907B03A0907C03B0907D032FBF881A1D
:1056F000990AAA0ABB0AB5E68B169104A104B10463
:1057000084F00E94970E60931502709316028093A6
:105710001702909318028091140280931302409212
:10572000120210911302A0911202A11BBB0BA50142
:1057300094010E94C83224E630E040E050E00E942C
:105740009132120F10931402C12CF12CB4E08B2E65
:10575000912C1DEF712E662463940CEF502E8091D6
:105760005202C81608F4E6C0F1100E94970E80910C
:10577000BE02882309F44EC060E080E00E94DC0E87
:105780004091590250915A0260915B0270915C0203
:105790002FB7F89480917A0390917B03A0917C03BA
:1057A000B0917D032FBF841B950BA60BB70B8136E1
:1057B0009A4EA105B10508F45BC10E9416138091B1
:1057C000BE02882371F02091BD033091BE032115E4
:1057D000310539F080919E0261E070E0882309F480
:1057E000B3C18091BD028823A9F00E94970E009159
:1057F000B9021091BA022091BB023091BC02601B29
:10580000710B820B930B6F3F7F4F8F4F9F4710F4AD
:105810000E941613D11001C0F1100E9431130E9492
:10582000CF0E90919F02891380939F028091A803CD
:10583000843009F011CE83E08093E9008091E80084
:1058400082FF0ACE8091E80090E085FF06C00E94AA
:105850001C0D882309F449C291E08091E8008B7700
:105860008093E800992309F4F7CD0091B7021091D5
:10587000B80289810115110509F453C28E3F09F060
:1058800093C28A81833020F08550833008F08CC227
:10589000EA81EE3008F088C2F0E0E259FC4C0C944A
:1058A000B032089FF001099FF00D1124ED53FD4F18
:1058B000A288B388A114B10419F438ECA32EB12C3A
:1058C000089FF001099FF00D1124ED53FD4F8681D3
:1058D0008823A1F0858596850E945F17A816B906D2
:1058E00068F4109F50011124C5018D539D4F0E94F3
:1058F0006818C50187539D4F0E9425181F5F812F8F
:1059000090E020910C0130910D01281739074CF6D9
:1059100054CE40815181052E000C660B770B440E4E
:10592000551E661E771E2F5F3F4F56CE412C512CC1
:105930003201CACE0C2D10E089B190E0880F892F7A
:10594000881F990B1C9992C0E0E08E2BD801AD5AAC
:10595000BD4FEC919E2F9370891709F485C0EE0F0F
:10596000EE0FE82BEC93EF70F0E0EE5AFE4FC8011B
:105970008F5A9D4F5C018081D5019C91890F8C933A
:1059800020E084308CF1F801E05BFD4F80818F5F77
:1059900080830E946E17CDAA5EAA6FAA8160782FBD
:1059A00099AF88AF4C2D5CEF61E089AD0E94891EF4
:1059B000EFE3FFE13197F1F700C000000E946E179E
:1059C000CAAE5BAE1CAE8160782F9EAF8DAF4C2D02
:1059D0005CEF60E08EAD0E94891E8FE39FE101972E
:1059E000F1F700C0000021E0D5018C918D3F8CF5CE
:1059F000F801E05BFD4F8081815080830E946E172B
:105A0000CBA67CA66DA68160782F9FA78EA74C2D74
:105A10005DEF61E08FA50E94891EEFE3FFE1319702
:105A2000F1F700C000000E946E17C8AA79AA1AAA4E
:105A30008160782F9CAB8BAB4C2D5DEF60E08CA927
:105A40000E94891E8FE39FE10197F1F700C00000DB
:105A500021E0D5018C91082E000C990BB4010E9415
:105A60005B32F5018083F22AC39479CEE2E06DCFF8
:105A70004091550250915602609157027091580220
:105A80002FB7F89480917A0390917B03A0917C03C7
:105A9000B0917D032FBF841B950BA60BB70B8536EA
:105AA0009105A105B10508F48ACE0E94970E609376
:105AB00055027093560280935702909358020E94A9
:105AC0001B1260E082E00E94DC0E8BE492E10E94F7
:105AD000DE128091B5030E94D911813059F18823DB
